:020000040800F2
:1000000030E20120B102000891A9000879880008B7
:10001000B9A70008DB2700086D02010800000000F6
:1000200000000000000000000000000061F7000870
:10003000E52D000800000000291D0008C5BD0008CE
:10004000EB020008EB020008EB020008EB020008DC
:10005000EB020008EB020008EB020008EB020008CC
:10006000EB020008EB020008EB020008EB020008BC
:10007000EB020008EB020008EB020008EB020008AC
:10008000EB020008EB020008EB020008EB0200089C
:10009000EB020008EB020008EB020008EB0200088C
:1000A000EB020008EB020008EB020008EB0200087C
:1000B000EB020008B5FA000835FC0008EB02000866
:1000C000EB020008EB020008EB020008EB0200085C
:1000D000EB020008EB020008EB020008EB0200084C
:1000E000EB020008EB020008EB020008EB0200083C
:1000F000EB020008EB020008EB020008EB0200082C
:10010000EB020008EB020008EB020008EB0200081B
:10011000EB020008EB020008EB020008EB0200080B
:10012000EB020008EB020008EB020008EB020008FB
:10013000EB020008EB020008EB020008EB020008EB
:10014000EB020008EB020008EB020008EB020008DB
:10015000EB020008EB020008EB020008EB020008CB
:10016000EB020008EB020008EB020008EB020008BB
:10017000EB020008EB020008EB020008EB020008AB
:10018000EB020008EB020008EB020008EB0200089B
:10019000EB020008EB020008EB020008EB0200088B
:1001A000EB020008EB020008EB02000800F002F886
:1001B00000F06FF80AA090E8000C82448344AAF192
:1001C0000107DA4501D100F064F8AFF2090EBAE890
:1001D0000F0013F0010F18BFFB1A43F0010318477B
:1001E00064CC050084CC05000A444FF0000C10F8E4
:1001F000013B13F0070408BF10F8014B1D1108BFA5
:1002000010F8015B641E05D010F8016B641E01F844
:10021000016BF9D113F0080F1EBF10F8014BAD1C94
:100220000C1B09D16D1E58BF01F801CBFAD505E0B2
:1002300014F8016B01F8016B6D1EF9D59142D6D30C
:10024000704700000023002400250026103A28BF34
:1002500078C1FBD8520728BF30C148BF0B60704738
:10026000642900F0BB80002070471FB522F079FDA3
:1002700000F0ECFB04000020002121F005FE401CF2
:1002800060600020002121F0E9FDE0601FBD10B595
:1002900010BD00F080FC1146FFF7E7FF1FF0E0FF04
:1002A00000F0F8FE03B4FFF7F2FF03BC00F0F8FE25
:1002B000DFF84400016841F470010160BFF34F8F23
:1002C000DFF83800016821F040410160BFF36F8F13
:1002D0000B4880470B480047FEE7FEE7FEE7FEE7D6
:1002E000FEE7FEE7FEE7FEE7FEE7FEE70648074912
:1002F000074A084B7047000088ED00E034EF00E04B
:1003000039F80008AD0100083090012030E20120EA
:10031000309201203092012072B6704762B6704769
:10032000EFF3108072B6704780F31088704730BFCB
:10033000704720BF7047B0FA80F0704790FAA0F085
:10034000B0FA80F0704790FAA0F070470FB41CB577
:10035000074B06AA7B4469460090059800F0CBFA4B
:100360000020694600F0DAFA1CBC5DF814FB0000BE
:10037000C50500002DE9F0410E460446002020622C
:100380002046E168884730B3252805D0D4E901210B
:100390009047206A401CF2E7E16820460027884722
:1003A000050018D0A5F14100192802D820354FF4D6
:1003B00000673246294620462760FFF751FF40B1CB
:1003C000012804D0F61D26F007060836D8E7361DAA
:1003D000D6E72846DAE7206ABDE8F0812DE9F0414A
:1003E0000646002410687529314616A511D0AFF3D2
:1003F0000080002803DAC0F1000013A507E031688F
:100400008A0701D511A502E0490704D510A50124EA
:1004100001E0AFF3008000210A2306F1240707E082
:10042000B0FBF3F203FB1200303078541046491C45
:100430000028F5D123462A463046BDE8F04100F0B9
:10044000F9B90000000000002D0000002B000000A2
:1004500020000000401ECAB210F8011F8A4202D0DC
:100460000029F9D10020704730B505460B462A46D1
:1004700013F8014B12F8010B08B1A042F8D01CB1DF
:10048000002802D06D1CF1E7284630BD40EA010388
:1004900010B59B070FD1042A0DD310C808C9121F2D
:1004A0009C42F8D020BA19BA884201D9012010BD67
:1004B0004FF0FF3010BD1AB1D30703D0521C07E034
:1004C000002010BD10F8013B11F8014B1B1B07D198
:1004D00010F8013B11F8014B1B1B01D1921EF1D109
:1004E000184610BD40EA0103024630B59B0710D103
:1004F0004FF0013400E008C208C91D1B9D4315EAF6
:10050000C41FF8D013F0FF0102F8011B0DD01B0A25
:10051000F8E711F8013B002B02F8013B05D011F878
:10052000013B002B02F8013BF3D130BD10B5431C59
:1005300002E010F8011B71B18107FAD14FF00132CE
:1005400002C88C1A8C4314EAC211F9D0C01A0A06E8
:1005500003D0C01E10BDC01A10BD0A0401D0801EF9
:1005600010BD0902FCD0401E10BD421E12F8013F12
:10057000002BFBD111F8013B002B02F8013BF9D114
:100580007047032A40F2308010F0030C00F0158011
:1005900011F8013BBCF1020F624498BF11F801CB86
:1005A00000F8013B38BF11F8013BA2F1040298BFEB
:1005B00000F801CB38BF00F8013B11F0030300F055
:1005C0006780083AC0F0088051F8043B083A51F8B7
:1005D00004CBA0E80810F5E7121D5CBF51F8043BFE
:1005E00040F8043BAFF30080D20724BF11F8013B71
:1005F00011F801CB48BF11F8012B24BF00F8013BD3
:1006000000F801CB48BF00F8012B7047431A28BF00
:100610009A427FF6B6AF032A1044114440F2268076
:1006200010F0030F1EBF11F8013D521E00F8013DEE
:1006300010F0030F7FF4F6AF11F0030300F0D78141
:10064000083AC0F00B8051F8043D083A51F804CD47
:1006500040F8043D40F804CDFFF7F3BF121D5CBF26
:1006600051F8043D40F8043DAFF30080D20724BFA9
:1006700011F8013D11F801CD48BF11F8012C24BF3C
:1006800000F8013D00F801CD48BF00F8012C70478B
:1006900010B5203AC0F00B80B1E81850203AA0E81D
:1006A0001850B1E81850A0E81850BFF4F5AF5FEA51
:1006B000027C24BFB1E81850A0E8185044BF18C904
:1006C00018C0BDE810405FEA827C24BF51F8043BAB
:1006D00040F8043B08BF7047D20728BF31F8023BFF
:1006E00048BF11F8012B28BF20F8023B48BF00F893
:1006F000012B704702F0FF0343EA032242EA024261
:1007000000F002B84FF000020429C0F0128010F08F
:10071000030C00F01B80CCF1040CBCF1020F18BFDD
:1007200000F8012BA8BF20F8022BA1EB0C0100F070
:100730000DB85FEAC17C24BF00F8012B00F8012B43
:1007400048BF00F8012B70474FF0000200B5134678
:1007500094469646203922BFA0E80C50A0E80C50E1
:10076000B1F12001BFF4F7AF090728BFA0E80C5092
:1007700048BF0CC05DF804EB890028BF40F8042B8B
:1007800008BF704748BF20F8022B11F0804F18BFF8
:1007900000F8012B704700004FF0013C50F8042B8B
:1007A00051F8043B9A4221D1A2EB0C03934313EA84
:1007B000CC1317D150F8042B51F8043B9A4215D1B1
:1007C000A2EB0C03934313EACC130BD150F8042B88
:1007D00051F8043B9A4209D1A2EB0C03934313EA6C
:1007E000CC13DBD04FF00000704700BFD01A01BA25
:1007F000B1FA81F101F0180122FA01F0CB40C1F108
:100800002001DBB2C0B2C01A2CFA01F3D11A914315
:1008100011EAC311E6D1704770477047704710B5B1
:1008200000F018F9006810BD10B5044600F012F988
:10083000046010BD2DE9F0470D46994692460446E6
:1008400000F124080168880604D5E06921F0100150
:10085000216000E00120A84202DDA0EB050700E0D6
:100860000027A16907EB050202EB0900A1EB0000DC
:10087000A0612078C00602D42046AFF30080002695
:1008800008E0D4E901211AF806009047206A401CCC
:10089000761C20624E45F4DB2078C0060AD520463F
:1008A000AFF3008006E0D4E9012130209047206AB0
:1008B000401C2062381EA7F10107F4DC07E0D4E9F0
:1008C000012118F805009047206A401C2062281E6C
:1008D000A5F10105F3DC2046AFF300802078000687
:1008E00002D50220BDE8F0870120FBE701694A1C20
:1008F00002610878704700B58FB0CDE90131002161
:10090000059105497944CDE9031011466846FFF782
:1009100031FD0FB000BD0000E5FFFFFF0A6802F8DF
:10092000010B0A60704700000FB4002300B589B0C6
:100930000CA900910B99CB60204B7B440693204B74
:100940007B44079304236FF00042CDE901321D4A36
:100950007A446B4608920246002022F06CFA09B0F5
:100960005DF814FB70B506464FF0FF3015460C4697
:10097000324686B00091CDE901016946002004901D
:1009800004A8FFF7D1FF03460498211825B108B148
:100990000A4600E022462A6000280DD0002B02DD26
:1009A0000098884208D03246081B69460094CDE979
:1009B000010404A8FFF7B8FF06B070BD31010000C4
:1009C0004901000009010000431A28BF9A427FF63E
:1009D0005FAE104410F0030F11441EBF11F8013D2B
:1009E000521E00F8013D10F0030F7FF4F6AF103AED
:1009F000C0F00A8010B531E91850103A20E91850BB
:100A0000BFF4F9AFBDE81040530724BF31E9081027
:100A100020E9081044BF51F8043D40F8043D12F0AD
:100A2000030F08BF7047D20728BF31F8023D48BF07
:100A300011F8012C28BF20F8023D48BF00F8012C16
:100A40007047000000487047CC8F01200048704775
:100A5000EC8F012000487047CC8F012010B5044670
:100A600000F0BEF80068005D00F0010010BD4268B3
:100A700042B1016811F8013B23B1521EC0E90012D6
:100A8000184670470121C160881E704742685AB1FC
:100A9000C368016843B983688B4205D0491E521C64
:100AA000C0E90012002070474FF0FF30704700008F
:100AB0002DE9F047814616468AB035487844D0E99A
:100AC000002380680092CDE90130314878440C3829
:100AD000D0E90223006903924FF03702CDE90430D8
:100AE00041F69B30014491FBF2F0A0F1800502FB3E
:100AF00010141B3C02D56442012000E00020DFF806
:100B000090A080460027FA44AAF1C60A0DE0E0074B
:100B100009D03246684607EB47010AEB810100F035
:100B200060FF8DE8070064107F1C002CEFD1184F88
:100B30007F44B43F17E0E80713D007EB04100DF132
:100B4000180A90E80E00AAE80E00C068F04201D131
:100B500098190890324606A903A800F042FF03AB9B
:100B600007C36D10641C002DE5D132466946B8F10B
:100B7000000F03A802D000F00CFF01E000F031FFED
:100B8000C9E90001C9F808200AB0BDE8F0870000F3
:100B9000DCC2050070477546FFF754FFAE460500FE
:100BA0006946534620F00700854618B020B5FFF788
:100BB0009DFBBDE820404FF000064FF000074FF0CE
:100BC00000084FF0000B21F00701AC46ACE8C0096B
:100BD000ACE8C009ACE8C009ACE8C0098D46704774
:100BE00010B5FFF733FF001D10BD00BF9D120200BE
:100BF0002DE9FF4F064689B00878FF2806D0491C2A
:100C00002D2805D000244FF0000908E000200CE05A
:100C10000124F8E709EB8903491C00EB4309087834
:100C2000FF28F7D114B1C9F10000814610780025E2
:100C30002C46AA4629462D2801D02B2804D1521C27
:100C40002D2813D0002082468B461078FF280FD025
:100C50004FF0000C0A21521CA5FB017804FB018116
:100C600005FB0C11C5194BEB0104EEE70120EAE787
:100C7000002108464FF00000BAF1000F02D000EB4F
:100C800080004008C0F38158B8F1010F01DD4FF03A
:100C9000FF380C9809EB000755EA040006D14FEA2B
:100CA000CA70C6E900B00DB0BDE8F08F17F5FA7F45
:100CB0004FF0020904DA4FEACA70C6E900B00BE04F
:100CC000B7F5FA7F0DDDF0487844D0E90010C6E9A9
:100CD000001040EACA707060FFF7BCFEC0F80090D8
:100CE000E1E7391E02DAC8F1000200E0424600DA0C
:100CF000794206A8FFF7DCFE06AB07CB03AB07C3C0
:100D000044F23E005BEA04010090584604D144F2EC
:100D10001E012C465D460091210C0904014306D1B9
:100D20000099240444EA15442D041039009104F07C
:100D30007F41014306D10099240244EA15642D0243
:100D40000839009104F07041014306D10099240153
:100D500044EA15742D01091F009104F0404101433C
:100D600006D10099A40044EA9574AD00891E009153
:100D700004F00041084304D100986D196441401EFD
:100D8000009042466846002FCDE9014503A902DDE7
:100D900000F03BFE01E000F010FEBAF1000F044647
:100DA0000D4601D084F0004440F2FF7724F000406B
:100DB000284303D0C4F30A50B84212D1FFF74AFEC9
:100DC000C0F80090C4F30A50B8420AD1AF48784442
:100DD000D0E90010C6E9001004F00041084370603B
:100DE00061E7C6E900545EE72DE9FF4F1F464FF06B
:100DF000000A4FF0FF38454691B0D7E90146CDF8DB
:100E00003CA0FFF723FEC0680168405C1090B96900
:100E100012986D1C8847396A814688470028F6D1A8
:100E200019F101000AD0002E24F4D06412DDB9F1CA
:100E30002B0F08D0B9F12D0F0CD102E0404615B0B0
:100E400032E744F48064B96912986D1C8847814682
:100E5000A6F10106600504A901D52D2000E02B2094
:100E6000002E01F1010B0DF130088DF810003FDD6F
:100E7000B9F1690F08D0B9F1490F05D0B9F16E0F7A
:100E800002D0B9F14E0F1CD13B4601A80095A0E855
:100E90005002DDE912126FF0020021F0D0FFC11CF8
:100EA000CDD10EE0B96912986D1C88478146139820
:100EB000761E44F4007405600F98401C002E0F90BD
:100EC00016DDB9F1300FEDD0B9F1780F02D0B9F1DC
:100ED000580F0DD10F9801280AD13B46CDE9005497
:100EE000DDE91212001F029621F0A7FFC11CA6D156
:100EF000109989453ED144F0800406E01399681C9E
:100F0000AAF1010A44F400740860B969761E1298C7
:100F10006D1C884730288146F0D02BE01099894518
:100F200005D1200603D4761E44F0800418E048461C
:100F30001DF0A8F808B3761E0DF123018B4544F48B
:100F4000007408D2A9F130000BF8010B200607D578
:100F5000AAF1010003E0200602D40AF10100824652
:100F6000A00502D51399681C0860B96912986D1C18
:100F700088478146002ED1DC54E0002E52DDB9F1C5
:100F8000650F02D0B9F1450F4CD1A0054AD5B9691A
:100F9000761E12986D1C24F440748847002E8146FA
:100FA0000DDD2B2804D0B9F12D0F08D144F4807445
:100FB000B96912986D1C88478146A6F10106E005C3
:100FC00001D52D2100E02B2108F8011BCDF8008070
:100FD00021E0761E0DF13901884544F400740CD2ED
:100FE000A9F1300010F0FF0088F8000002D100994C
:100FF000884509D908F1010806E0E00501D5244833
:1010000001E042F20F708246B96912986D1C884760
:10101000814613980560002E04DD48461DF032F825
:101020000028D6D1F96912988847FF2053468BF8DB
:10103000000088F8000000200A900B9004AA0CA978
:101040000AA8FFF7D5FDA00502D46FF00100F6E66F
:1010500014F0240F0AD0E00714D13868DDE90A1231
:10106000031D3B600068C0E900120BE00AA9684656
:101070001BF0A2FEE00705D13868009A011D396017
:10108000006802602846DAE698C1050092C00500B3
:10109000F1D8FFFF0446AFF300802046FFF702F9C6
:1010A00001491820ABBEFEE7260002002DE9FF4FE4
:1010B0001F464FF03C0987B04FF00042DDE91410A5
:1010C00001F10108DDF858A002EA40500390002029
:1010D00004908346054604460590B969461E089863
:1010E0008847AAF1010A0290BAF1000F37DD029891
:1010F0002E2815D0102100F014FA00282ADB4FF01A
:10110000010B0499014316D0B9F1000F0BDB4A46DD
:10111000C11700F0F3F905430C43A9F1040905E0F8
:101120000120059007E008B145F001050120049079
:10113000059800B9361DB969089808F10108884773
:10114000BBF1000FAAF1010A0290CDD00999C1F8B4
:101150000080C9E70298702808D0502806D0F969A5
:1011600008988847BBF1000F14D04FE00020029090
:101170000120BBF1000F049009D0B969089808F16B
:1011800001088847AAF10109B9F1000F07DCF969E4
:10119000089888476FF001000BB0BDE8F08F2B284E
:1011A00004D02D280CD14FF0FF300490B969089875
:1011B00008F101088847A9F10109B9F1000FE6DD3E
:1011C000411CE4D00A2100F0ACF90028DFDB0299D1
:1011D00008F1010801EB810100EB41000290B969BF
:1011E000089888470A2100F09CF9099AA9F1010999
:1011F000B9F1000FC2F8008001DD0028E7DAF969D3
:10120000089888470499029800FB016655EA040093
:1012100001D103989CE004F04041090004D1A400EE
:1012200044EA9574AD00B61E04F00041080002D1F6
:101230006D196441761E159810F0240F03D04FF0FD
:101240000B095C4803E04FF028096FF07D008246EF
:10125000564507DAAAEB06018944B9F1410F01DDD1
:101260004FF0410901200021A9F1010200F046F9E7
:10127000024628400B462140084301D0012100E0EE
:101280000021501E029143F1FF31284021400843C4
:1012900001D0012000E000200299834651EA0B01B1
:1012A0004FD0002108464FF00000039900F44000A1
:1012B00039B100EB80004FF4400100EBD07001EA3F
:1012C00060008015012802DD4FF0FF3000E013D0F0
:1012D000401C36D0029860B3BBF1000F0CD14A46D7
:1012E0000120002100F00AF928402140084301D0E4
:1012F000012000E00020E0B101204A46002100F07A
:10130000FDF8034640190A4661412D1A8C4111D35C
:10131000B9F1400F09DD159810F0240F02D0AAF1A1
:10132000340603E0AAF1170600E0761C00254FF012
:10133000004406E05B1E42F1FF3220EA030521EA89
:101340000204CAF10100B04206DA1B4903980843BF
:101350000190002000900EE0039AC4F3D321E80A24
:101360000A43164940EA44500A433146CDE9000297
:1013700068461BF07DFD159810F0240F0BD01598D2
:10138000C00715D13868DDE90012031D3B60006815
:10139000C0E900120CE002A869461BF00DFD15988B
:1013A000C00705D13868029A011D396000680260E3
:1013B0004046F1E602FCFFFF0000F07F0000F03F36
:1013C0002DE9FF4F92461D4685B04FF00041DDE903
:1013D000124BDDE914727F1E01EA4B50434940F085
:1013E000FF4940EA0108002122F020004928049129
:1013F00002D04E282BD04FE03DA00126D0E90012AC
:1014000080680091CDE90120A9690698641C88478D
:101410007F1E014606D41DF8060018B121F02001F8
:1014200081420BD0E96906988847032E34D0082EF4
:1014300032D06FF0010009B0BDE8F08F761C032EAA
:1014400001D0082EE0D1601CCAF80000DCE7A969D1
:101450000698641C88477F1E2AD420F0200041286B
:1014600026D1A9690698641C88477F1E20D420F0E5
:1014700020004E281CD1A9690698641C88477F1E4D
:1014800048F4002849F48009CAF8004001D428280B
:1014900006D0E969069888475FEACB7012D022E04F
:1014A000A9690698641C88477F1E01D4002803DAC6
:1014B000E96906988847BCE72928F1D1641CCAF875
:1014C0000040E9E71BF0240F07D028680499031DAA
:1014D0002B600068C0E9001805E02868021D2A603A
:1014E0000068C0F800902046A5E700000000F07FEB
:1014F000494E46494E49545900000000B2F12003BC
:101500000AD5C2F1200301FA02F120FA03F300FA2E
:1015100002F041EA0301704700FA03F14FF00000C6
:1015200070473A2800D2303820F02002412A01D3F7
:10153000A2F13700884201D34FF0FF30704720F00E
:101540007F4C80EA030023F07F47ACEB070303F5F1
:101550007C5300F0004003F1FF032DE980494FEA7E
:10156000154B09B44FEA144325EA0B4E24EA03480D
:101570000FF2042606EB132749083E785FEA320291
:1015800003FB0667C7F5000707FB06F64FEA54376B
:101590004FEAD64606F1020607FB066CCCF1005C6A
:1015A0004FEA1C472CEA074C07FB06F40CFB06F538
:1015B00004EB15464FEA961634BF00204FF000406A
:1015C0004FEAD13706FB07FC4FEA1C4C0CFB0BF72C
:1015D000D21B03FB0CF761EB07010CFB0EF7B0EB22
:1015E000074072EB17420CFB08F734BFA2EB07422F
:1015F000B2EB074261EB17414FEA0C444FEA910707
:1016000006FB07FC4FEA1C4C0CFB0BF7B0EBC7408A
:1016100072EB573203FB0CF734BFA2EBC742B2EBBD
:10162000C74261EB57310CFB0EF7B0EBC70072EB12
:1016300057720CFB08F734BFA2EBC702B2EBC7022C
:1016400061EB5771039F4FEA816141EA921104EB0C
:10165000CC044FEAD1374FEA826206FB07FC42EA2C
:1016600090124FEA80604FEA1C4C0CFB0BF7D21B28
:1016700003FB0CF761EB07010CFB0EF7B0EB074027
:1016800072EB17420CFB08F734BFA2EB0742B2EB38
:10169000074261EB17414FEA8C554FEA910704EB83
:1016A0009C2406FB07FC4FEA1C4C0CFB0BF7B0EB31
:1016B000C74072EB573203FB0CF734BFA2EBC742B3
:1016C000B2EBC74261EB57310CFB0EF7B0EBC70032
:1016D00072EB57720CFB08F734BFA2EBC702B2EBF8
:1016E000C70261EB577115EB4C254FEA816141EA66
:1016F00092114FEA82624FEAD13742EA901206FB1A
:1017000007FC44F100044FEA80604FEA1C4C0CFBDC
:101710000BF7D21B03FB0CF761EB07010CFB0EF779
:10172000B0EB074072EB17420CFB08F734BFA2EB9B
:101730000742B2EB074261EB174115EB1C154FEA6C
:10174000813141EA92414FEA823242EA90424FEAC5
:1017500080304FEA0C7644F1000448EA03434EEA35
:101760000B484FF0000EB2EB080C71EB030724BFDF
:10177000624639464EEB0E0E4FF0000B00185241F8
:1017800049414BEB0B0BB2EB080C71EB03077BF100
:10179000000B24BF624639464EEB0E0E4FF0000B95
:1017A0000018524149414BEB0B0BB2EB080C71EBAB
:1017B00003077BF1000B24BF624639464EEB0E0E49
:1017C00051EA020718BF46F0010616EB0E7655F1F6
:1017D000000254F1000103D5BDE88901BDE800888D
:1017E000BDE88901BDE80048B619524141EB01014D
:1017F000A3F10103704780807F7E7D7C7B7A7978BE
:10180000777676757473727171706F6E6E6D6C6CC5
:101810006B6A6A6968686766666564646363626167
:101820006160605F5F5E5E5D5D5C5C5B5B5A5A59E8
:101830005958585757565655555554545353525254
:101840005251515050504F4F4F4E4E4D4D4D4C4CAC
:101850004C4B4B4B4A4A4A494949484848474747F5
:101860004746464645454544444444434343434232
:10187000424242414141000046EA0646A3F5705308
:101880004FEA164646EA42564FEAD22242EA41520F
:1018900010B54FEAD121A3F1010300F017F820F0B1
:1018A000004000F1010C00F0004701EB0050114630
:1018B000BCF5006F40EA070000D210BD02484FF0AF
:1018C000000140EA070010BD0000F07F002B26D485
:1018D000770021D01CB54FEA370703B44FF0100052
:1018E0004FF010014FF000000FBCBDE810400BF1AD
:1018F000010BBBF1010F08BF5FEA170722BF12F10E
:10190000010211F101014FF0004143F1000300F029
:10191000004043EA00007047F9D35708DAE746EA87
:10192000064613F1400F4FEA16461FDD13F1200F54
:10193000DFBF16430A46002120335B42C8D0C3F103
:10194000200746EA064602FA07F74FEA164646EA35
:101950000706C3F1200722FA03F201FA07F721FA7A
:1019600003F14FF0000342EA0702B1E746EA02063C
:1019700046EA06464FEA164646EA0106BCBF46EA74
:101980000646360C4FF000034FF000024FF0000106
:101990009EE72DE9C048934630B491E8380007C867
:1019A00031EA400C48BF34EA430C03D5FFF7C7FDCA
:1019B000FFF78CFFF0BCBDE800882DE9C0489346D6
:1019C00030B491E8380007C831EA400C48BF34EA27
:1019D000430C03D5FFF7B3FDFFF74EFFF0BCBDE8A6
:1019E00000882DE9C048934630B491E8380007C814
:1019F00010F0804F08BF13F0804F03D100F019F8AA
:101A0000FFF764FFF0BCBDE800882DE9C0489346AD
:101A100030B491E8380007C810F0804F08BF13F0C9
:101A2000804F03D100F005F8FFF726FFF0BCBDE8BA
:101A3000008820F07F4780EA030023F07F4C07EB0B
:101A40000C03A3F57C5300F00040A3F1FE0392F0D9
:101A5000000F00F0B38095F0000F00F077802DE9C3
:101A600001494FEA11404FEA144621EA004800FBC1
:101A700006FC24EA064708FB06F607FB08F800FB0D
:101A800007F718EB06484CEB164C4FEA124B18EBD5
:101A900007484FEA15464CEB174022EA0B4E0BFB6A
:101AA00006FC25EA06470EFB06F607FB0EFE0BFBBF
:101AB00007F71EEB064E4CEB164C4FF000061EEBE4
:101AC000074E4CEB174B18EB0B0840F1000018EBDE
:101AD0000E0B58EB000840F100008F1A4FF0000188
:101AE0003CBFC943661B14BFB5EB040C00213CBFCF
:101AF000C943F61B4FEA17444EEA8E0E27EA044507
:101B00004FEA1C4704FB07622CEA074C05FB07F76A
:101B10000CFB05F604FB0CFC16EB074642EB1742E8
:101B200016EB0C4642EB1C421BEB060658EB02027E
:101B3000414146EA9E0601D5BDE80189B6195241E8
:101B400041EB0101A3F10103BDE801894FEA14450E
:101B50004FEA114724EA054621EA074C05FB07F442
:101B600006FB07F70CFB06F105FB0CFC11EB07412C
:101B700044EB17444FEA124711EB0C4144EB1C4471
:101B800022EA074C05FB07F206FB07F70CFB06F6FB
:101B900005FB0CFC16EB074642EB174216EB0C4616
:101BA00042EB1C456A1854F1000148BF7047B61952
:101BB000524141EB0101A3F10103704795F0000F81
:101BC00037D04FEA11424FEA144721EA024624EA8D
:101BD000074C02FB07F106FB07F70CFB06F402FBC0
:101BE0000CFC14EB074441EB17414FEA154714EB8B
:101BF0000C4441EB1C4125EA074C02FB07F506FBB0
:101C000007F70CFB06F602FB0CFC16EB074645EB50
:101C1000174516EB0C4645EB1C42121951F1000119
:101C200048BF7047B619524141EB0101A3F10103CE
:101C300070474FEA14454FEA114724EA054621EA66
:101C4000074C05FB07F106FB07F70CFB06F24FF00C
:101C5000000605FB0CFC12EB074241EB174112EBAF
:101C60000C4251EB1C4148BF7047921841EB0101F7
:101C7000A3F1010370470000EFF3098141B1F1EED8
:101C8000101A40F8041D20ED200A3B490A68106034
:101C90007047B0EC200A02C8E1EE101A37490A6812
:101CA0001060704772B64EF62250CEF2000040F23D
:101CB000FF01C0F20001017040F22810C2F20000E2
:101CC000016881F3088840F2A200C2F2000040F2ED
:101CD000A301C2F200010A78027040F22015C2F29C
:101CE000000540F22411C2F200010A682A6010685F
:101CF00080F30988EFF3148040F0020080F3148829
:101D0000BFF36F8FBDE8F00F0FBCBDE8005006BCFD
:101D100062B608471A484FF0805101607047184872
:101D20004FF080510160704772B6EFF3098020E9EF
:101D3000F00F40F22015C2F200052E6830607446A4
:101D400009F0FAFE40F2A200C2F2000040F2A30144
:101D5000C2F200010A78027040F22411C2F20001BE
:101D60000A682A6044F0F40E1068B0E8F00F80F3BF
:101D7000098862B67047000020010020240100207D
:101D800004ED00E0002904D0816841F00101816088
:101D90007047816821F001018160704710B5094CDE
:101DA0002268094902EA0102D0E9001341EA03016D
:101DB000D0E9023043EA000341EA030141EA0201AB
:101DC000216010BD04230140E030FCFF002904D055
:101DD000816841F4807181607047816821F480716D
:101DE00081607047002904D0816841F400718160EE
:101DF0007047816821F40071816070472DE9F047D8
:101E00009CB0012157480BF0BBFE01214FF44070FC
:101E10000BF0E0FE002403945348049053480590CF
:101E200006940125079508940994EF020A974FF448
:101E30000058CDF82C804FF48079CDF830906E04A6
:101E40000D960E940F9510941194DFF824A103A918
:101E5000504600F09DFF0121504600F0E3FE680669
:101E60000390444804904148801C059006940795CF
:101E7000089409940A97CDF82C80CDF830900D96EF
:101E80000E940F9510941194394E03A930363046B4
:101E900000F07EFF0121304600F0C4FE01950326CC
:101EA0008DF808608DF80B40334F01A9384602F0D9
:101EB00049FA042101918DF808608DF80B4001A9C1
:101EC000384602F03FFA129413941494159412A811
:101ED000FFF764FF16948DF85C408DF85D50189400
:101EE00019941A948DF86C501F4E16A94C3E30462A
:101EF00000F044F816948DF85C408DF85D5018940D
:101F000019941A948DF86C501A4C16A94C3C204622
:101F100000F034F8002301220A21304600F054F882
:101F2000002301220C21204600F04EF8012130460A
:101F3000FFF758FF01212046FFF754FF01213046EB
:101F4000FFF744FF01212046FFF740FF0121304603
:101F5000FFF718FF01212046FFF714FF1CB0BDE872
:101F6000F0870000040040004C2001408A0200205D
:101F7000106402404C2101400008024030B5426824
:101F80000F4B1A400C790B6842EA0422134343605A
:101F900083680C4A1340D1E9034222434D798C688F
:101FA00044EA450422431A438260C26A22F4700262
:101FB000097D491EC9B242EA0151C16230BD00002B
:101FC000FFFEFFFCFDF7FFC070B5072609290AD9FF
:101FD000C568A1F10A0404EB4404A640B543A3403C
:101FE0001D43C56007E0056901EB4104A640B54308
:101FF000A3401D4305611F23072A09D2446B521ECB
:1020000002EB820293409C4391400C43446370BDB9
:102010000D2A09D2046BD21F02EB820293409C432B
:1020200091400C43046370BDC46A0D3A02EB820216
:1020300093409C4391400C43C46270BD816841F061
:10204000804181607047000008B506A20021084861
:1020500000F0F2F806486B46012206A1283008F08D
:1020600093FF08BD53454D5F53594E434800000050
:102070002C94002053454D5F4D55544558000000A9
:102080002DE9F0418AB000240326CDE906461F4819
:10209000019005944FF400674FF0CC083820CDE94B
:1020A00002870090194809AD089504942346184A00
:1020B00018A1C03809F00CFACDE90646059478104D
:1020C0000895CDE903046621164ACDE901213620A1
:1020D000009014480023144A14A1C03809F0F8F9FC
:1020E000CDE906461448019005943920CDE90287D0
:1020F00000901148089504940023104A10A1C0389C
:1021000009F0E6F90AB0BDE8F0810000AC42002019
:102110004D210008417070205461736B2047554970
:10212000000000006C63002025020108546F7563F5
:1021300068205461736B00002C740020DBD700080A
:102140005072696E74205461736B00000EB50420E8
:102150000FF0E6FC0EF092FE0EF0F6FD002502AC4C
:1021600000F0A8FC0022CDE90054012311461046DE
:1021700009F05CFDF4E7000008B500F020F800F07D
:1021800069F8684609F046F9FFF75EFF0121080388
:102190000BF0F6FC03F01EFD0CF0B6FAFFF770FF33
:1021A0006946024809F048FA08BD00002C3F0020AB
:1021B0001FB568460BF02AFD019804B010BD00F071
:1021C00003B8FEF7A9B800001CB5012120200BF0D0
:1021D000D7FC01201CF05AF802201CF057F803200D
:1021E0001CF054F804201CF051F801208DF8040074
:1021F00000208DF806008DF8070003208DF80500FB
:10220000802000900B4C6946204602F09BF8A115F7
:1022100000916946204602F095F8611500916946E3
:10222000204602F08FF8211500916946204602F001
:1022300089F81CBD0014024038B50C4611466B46A7
:10224000224608F063FFBDF8000008B1002038BD49
:10225000012038BD10B5FFF7ABFF04490968B0FB9A
:10226000F1F0BDE8104009F0BFBD0000A82E020843
:10227000014651200BF074BC2DE9F0410546DDF814
:1022800018800C4616461F46E9B258200BF068FC31
:10229000290A59200BF064FCE1B25A200BF060FCD3
:1022A000B8F1000F17D0802040EA14215B200BF01A
:1022B00057FCF9B25C200BF053FC390A5D200BF09F
:1022C0004FFCF1B25E200BF04BFC310ABDE8F0414F
:1022D0005F200BF045BC210A5B200BF041FCE8E7D6
:1022E00010B505490120087050200BF02BFCBDE80B
:1022F000104080200BF02CBC2C01002010B50BF0FE
:102300003DFB4006FBD402490020087010BD0000D0
:102310002C01002038B545680446014628460DF0DA
:10232000C7FF00282AD02068304A0F2819D006DCC1
:102330000B2824D00C2810D00E2851D12FE01128C2
:1023400002D028284CD145E09268002A16D02146B8
:10235000284601B0BDE83040104721462846526863
:10236000F7E7284602F00CFB0090406E04686846D0
:1023700002F062FB002C01D02846A04738BD284659
:1023800002F0FEFA0090683002F054FA009803213F
:102390006C3002F05DFA684602F04EFB20E0E16826
:1023A000486809680D2902D0202913D105E00028CA
:1023B00010DD284616F08BFB06E0002804DD2846D9
:1023C000BDE8384016F083BB2846BDE838400221FE
:1023D00016F093BBE06818B90021284600F0ADF96B
:1023E0002046BDE838400EF0FDBB0000743A0020E6
:1023F000F0B5044685B08069B4F90850668A0027B4
:10240000CDE90265CDE900170490B4F90C00B4F9E8
:102410001060C118B4F90A00B4F90E5010443346E4
:102420002A4600F007F80546616800F0A9F905B0F2
:102430002846F0BD2DE9F04F85B01F46DDE911B407
:10244000DDE90E5690468946824603F02DFC4C3459
:102450001548CDE90204CDE900563B4642464946BF
:1024600050460EF005FB040018D002F089FA102245
:10247000594604900EF036F9049830220B49343056
:10248000FEF706F9094D04990C3D2868486604A832
:1024900002F0D2FA286841682046884704F0AAFE74
:1024A00005B02046BDE8F08F15230008803A0020D3
:1024B000F0B5044680688B4989B051F820506068B7
:1024C00000287DD0052804D006287AD0122879D19A
:1024D000AEE0E86900284FD095E80E008DE80F00C7
:1024E00004F110010FC905F02BFC002655F8260059
:1024F00004F0B3F9A169E8690A1A21690144606925
:10250000304403F0A7F8A169E8690A1A2169014477
:10251000E069801B03F09EF8E169E8690A1A6169C5
:1025200001442069304403F05DF9E169E8690A1A61
:1025300061690144A069801B03F054F9761C022EE6
:10254000D4DBA86804F089F9E069E9696669431A8F
:1025500020694218521E3144801C03F0B5F9E1692C
:10256000E869A2690B1A61690144101A401C921EA5
:1025700003F0AAF9EE6913E05FF0000655F82600B3
:1025800004F06BF9E069831BA069821B6069811903
:102590002069304403F0B0F8761C022EEEDB0226F0
:1025A000D5E90301CDE900016169E0690844431000
:1025B000A069891C821B2069304403F00FF802E0F7
:1025C00089E012E08AE0D5E90501CDE90001E3697F
:1025D00060690121184401EB6001A0699B1E821B08
:1025E0002069304402F0FAFF78E0206802F0C8F970
:1025F000049020680FF01AFF40B1A06808B10020D5
:1026000008E00498006F28B1012003E00498406FAF
:1026100000B10220049901EB8000C56E04A802F00D
:102620000BFA00231A462846216802F085FD55E082
:10263000206802F0A5F90490866EEEB3B0F95C70E4
:10264000A168D1B3032942D05FF0000100EB810102
:10265000406D0C6C04F03CF9204604F0FEF805A82F
:1026600003F0F4F9BDF81410A88B0144ADF8141070
:10267000BDF81810081AADF81800BDF81600801C37
:10268000ADF81600BDF81A00801EADF81A000498C7
:102690005E30B0F90220B0F9001005A803F08CFFFD
:1026A00004A802F0C9F9022004F07EF9304602F0D5
:1026B00067F93A4605A901E00BE006E0079002F051
:1026C0001DFE07A802F0B8F908E00121BEE70221CB
:1026D000BCE704A8F6E720680FF0BAFA09B00020BA
:1026E000F0BD00001C60050838B505004FF000047F
:1026F0000DD003F0D9FA284602F042F90090408E3E
:10270000C0F30024684602F097F904F073FD2046F8
:1027100038BD38B50D4604000ED003F0C5FA20468A
:1027200002F02EF900904565684602F085F92046D2
:102730000EF0ACFF04F05EFD38BD4FF4807200294E
:10274000114601D00DF043BE0DF091BD38B50C46D9
:10275000054603F0A9FA284602F012F9009007494D
:1027600084654166684602F067F928460FF070FA02
:1027700028460EF08BFF04F03DFD38BDB03A002036
:102780002DE9FF410E4605004FF0010421D003F072
:102790008BFA284602F0F4F80190876E01A80097A2
:1027A00002F04AF93146684605F06AFE78B10098B1
:1027B0000024B84208D0284602F0E2F801900099BF
:1027C000816601A802F038F928460EF05FFF04F098
:1027D00011FD04B02046BDE8F081FEE710B500F021
:1027E00019F8BDE8104000F011B8000010B5FDF771
:1027F00097FD04461021044807F0DFFF2046BDE89E
:102800001040FDF791BD000084940020FFF7EEBF5B
:10281000FEE7000002490020086000F009B800004F
:102820005400002001490860704700005400002057
:1028300010B5FFF7BDFC08490A6842F080720A60D3
:10284000064900224A600A6842F001020A60BDE8B7
:102850001040FFF7E7BF0000FCED00E0001000E0D3
:102860000148406870470000001000E0704770B5F4
:1028700000254FF4803403E080200BF057FD08B9A9
:10288000641EF9D22CB140F2FF500BF027FD284610
:1028900070BD032070BD000010B5044613490868E0
:1028A00010F0450FFBD004200BF040FD20B10420B8
:1028B0000BF014FD032010BD01200BF037FD20B1FB
:1028C00001200BF00BFD012010BD084824380068E2
:1028D000A04201D0102010BD40F2FF500BF0FEFCD2
:1028E00002482038006800F0080010BD342C014078
:1028F00010B500244FF480310F4B03E01A6812F03A
:10290000450F01D1491EF9D209B1500705D503245D
:1029100004200BF0E3FC204610BD01200BF006FD67
:1029200018B1012401200BF0D9FC40F2FF500BF04C
:10293000D5FC204610BD0000342C014010B50A49DA
:10294000086810F0450FFBD004200BF0EFFC20B11D
:1029500004200BF0C3FC032010BD40F2FF500BF02D
:10296000BDFC002010BD0000342C014070B50646AF
:102970000C4600251C4B1A6812F0450FFBD00420B2
:102980000BF0D4FC20B104200BF0A8FC032070BD98
:1029900001200BF0CBFC20B101200BF09FFC0120AB
:1029A00070BD114824380068B04201D0102070BDBD
:1029B00040F2FF500BF092FC0B482038026812F4F2
:1029C000604F03D0900405D5132070BD100C2080FB
:1029D000284670BD500401D5102070BD100401D5EB
:1029E0000F2070BD284670BD342C014010B5002466
:1029F0004FF480320C4B03E0196811F0450F01D100
:102A0000521EF9D20AB1480705D5032404200BF061
:102A100065FC204610BD480603D5002440200BF07D
:102A20005DFC204610BD0000342C0140034A002309
:102A30001371D3711160114601F084BC9002002023
:102A4000054A116001211171032353710023937111
:102A5000D171114601F076BC900200201CB50EF039
:102A60000DFA0346002000900190054A0521054813
:102A700002F03CFA044602F0EFFE20461CBD0000C6
:102A80006DD00108783402081CB50EF0F7F9034642
:102A9000002000900190054A0621054802F026FA20
:102AA000044602F0D9FE20461CBD0000B9D401083E
:102AB000383602081CB50EF0E1F9034600200090FC
:102AC0000190034A0421034802F0F2FE20461CBD97
:102AD00085CE0108083402081CB50EF0CFF9034674
:102AE000002000900190084A0B21084802F0FEF9EE
:102AF000044600234FF47A72194620460DF08AFFEF
:102B000002F0AAFE20461CBDA5D201080435020829
:102B10001CB50EF0B3F90346002000900190054A61
:102B20000F21054802F0E2F9044602F095FE204626
:102B30001CBD0000C1D50108E03602081CB50EF02E
:102B40009DF90346002000900190084A082108489A
:102B500002F0CCF9044600234FF47A72194620465D
:102B60000DF058FF02F078FE20461CBD29D8010860
:102B7000843802081CB50EF081F90346002000904D
:102B80000190054A0421054802F0B0F9044602F01C
:102B900063FE20461CBD000061DA010864390208AA
:102BA0001CB50EF06BF90346002000900190044A1A
:102BB0000B21044802F09AF9034908601CBD00008B
:102BC00061DB0108D4390208D43900201CB50EF0AD
:102BD00055F90346002000900190054A022105485E
:102BE00002F084F9044602F037FE20461CBD0000C6
:102BF00059DD0108083B02081CB50EF03FF90346F9
:102C0000002000900190054A0421054802F06EF969
:102C1000044602F021FE20461CBD0000FDDE010836
:102C2000403B0208002904D0016841F00101016025
:102C30007047016821F00101016070472DE9F04300
:102C4000016821F0010101600021016041608160A3
:102C5000C1600161212141613E493E4A10394FF076
:102C60003D08904203D1C1F80880BDE8F083394A9D
:102C70004FF474651832904201D18D60F5E7354A02
:102C80004FF474163032904201D18E60EDE7314A34
:102C90004FF074674832904201D18F60E5E72D4BC9
:102CA0002D4A6033984201D1CA60DEE7294C2B4B94
:102CB0007834A04201D1CB60D7E7DFF898C0284C28
:102CC0000CF1900C604501D1CC60CEE7DFF8849028
:102CD0004FF03D5C09F1A809484502D1C1F80CC08C
:102CE000C3E72049DFF87C900839484502D1C1F894
:102CF0000080BAE7DFF86C8008F11808404501D180
:102D00000D60B2E7174D3035A84201D10E60ACE737
:102D1000144D4835A84201D10F60A6E7114D114965
:102D20006035091FA84201D10A609EE70D4A78323A
:102D3000904201D10B6098E70A4A9032904201D14B
:102D40000C6092E7074AA83290428ED1C1F800C0C9
:102D50008BE70000106002403D000020400F002083
:102D600000003D2010640240002904D0016841F0B9
:102D7000200101607047016821F020010160704767
:102D8000014600200968C90700D0012070470000F3
:102D900030B50368124A1340CC680A682243D1E96F
:102DA00005452C432243CC6922430C6A22434C6ADA
:102DB00022438C6A22434C6B22438C6B22431A437E
:102DC0000260426922F00703D1E90B2422431A432F
:102DD00042610A6942604A6882608968C16030BDA8
:102DE0003F801CF070472DE9FC470E465FEA000962
:102DF0007FD002F059FF484601F0C2FD009090F8E4
:102E00005470D0F85880456BC46C684601F014FECD
:102E1000B8F1000F04D0314648464246904761E081
:102E2000122E18D006DC082E43D0102E3CD0112EC6
:102E300006D112E0132E21D01D2E43D01E2E3DD0E0
:102E4000202E4FDB17B1484610F0EFFBB1B24846D9
:102E500015F08CFA60B3611C27E04DB3284601F0F1
:102E60008FFD05462146019004F0A0F84419204644
:102E700004F04AF801462346012210E0C5B1284675
:102E800001F07EFD05462146019004F08FF84419BB
:102E9000204604F039F8014623464FF0FF324846F9
:102EA00010F056F901A81BE0611E484600F0F0F949
:102EB00018E0BCB1611E484600F0EAF9484610F03F
:102EC000B4FB0FE0484601F05BFD0090012F12D0EB
:102ED000012180F854102146484600F0D9F968468F
:102EE00001F0AAFD48460EF0D1FB00E001E004F03D
:102EF00081F9BDE8FC87002180F85410EFE7FEB5AA
:102F00004468054620460FF091FA064629462046B9
:102F10000DF0CEF9002834D028680E283DD004DC0E
:102F20000B282FD00C284AD116E00F2825D0A0F569
:102F30008070133843D120460EF02EFD204600212C
:102F400016F030FA204601F01BFD0190C06F002101
:102F50000EF0FAFC01A81DE0E86860B1017A29B121
:102F60000168204600F0A6F8012100E00221204679
:102F70000EF02FFC23E00321F9E70121204616F093
:102F800011FAFEBD204601F0FBFC0090343001F048
:102F900051FC684601F050FD11E086B1E8684168D7
:102FA00000290CDD0168092909D00A2907D00D295B
:102FB00005D01B2903D02046FFF715FFFEBD28468C
:102FC0000DF010FEFEBDF0B587B004460DF1080C03
:102FD000D4E90567B0F90850408AACE8E100002068
:102FE000CDE90010B4F90C00B4F91060C118B4F9BF
:102FF0000A00B4F90E50104433462A4600F008F88F
:10300000050002D0618A00F02EF907B02846F0BD15
:103010002DE9FF5F1F46DDE91254DDE90E6A904697
:103020008946834602F040FE0DF1040C4AF48050BC
:1030300058341E490096ACE813003B4642464946C8
:1030400058460DF015FD04002AD001F099FC10221D
:10305000009011990DF046FB00981C221449603035
:10306000FDF716FB009A012082F85500681C00D07D
:10307000012082F88000002D00DC08252DB2158784
:103080000020508750636D1C684601F0D5FC29462E
:10309000204614F0A8FF18B920460DF0DBFD0024EF
:1030A00004F0A8F804B02046BDE8F09FFF2E000809
:1030B0003C3B00202DE9F04186B00C46060055D07F
:1030C00002F0F2FD304601F05BFC0090406B98B3DB
:1030D00001F056FC03900098806E03F0F9FB8046E7
:1030E00030460EF00AF80746039802F01CFD05462C
:1030F000009890F8601001F00301012916D0022910
:103100000DD0416EC06A00680844241A641E0398FA
:1031100005F00AF80146002C0FDA002115E0781BB3
:10312000401C00EBD070A4EB6004F0E7406E791B0C
:10313000081A241A641CEAE713E0AC4205DC0246D4
:103140002146039804F090FF0146304600F0A0F8B5
:1031500003A801F071FC404603F0BAFB30460EF0C4
:1031600095FA684601F068FC04F044F806B0BDE842
:10317000F08138B50C4605000FD002F095FD2846C9
:1031800001F0FEFB009018B1846628460EF07EFA2E
:10319000684601F051FC04F02DF838BD2DE9FC47DC
:1031A00088465FEA00094FF000055AD002F07CFD26
:1031B000484601F0E5FB0090B0F93860446B684682
:1031C00001F03AFC0027B8F1000F3ED04CB1204688
:1031D00001F0D6FB0190FDF7A9F9451C01A801F00B
:1031E0002BFC404604F0A0FF0446B04200DD34460C
:1031F0002146404603F0DAFE461C711B484615F096
:1032000051F908B3484601F0BBFB0090406B01F058
:10321000B7FB324641460190FDF7B3F901983044BF
:1032200000F8017C0098C464B0F938108C4205D1D4
:1032300090F85410012901D1641EC464684601F05D
:10324000FBFB01A801F0F8FB06E00098343001F028
:10325000F1FA00984787C76448460EF017FA03F062
:10326000C9FFBDE8FC8738B50C4605000FD002F059
:103270001BFD284601F084FB009018B10466284627
:103280000EF004FA684601F0D7FB03F0B3FF38BD37
:103290001CB50C4601F074FB0090406BF0B101F0DE
:1032A0006FFB019004F040FF009991F8542002B1A7
:1032B0000122002C00DA0024844200DD0446B1F92A
:1032C0003800801AA04200DA0446C86CA04200D040
:1032D000CC640020086501A801F0AEFB684601F04F
:1032E000ABFB1CBD4FF0204202EB8000002904D054
:1032F000016841F00101016070470168014A114015
:1033000001607047FEFF0F0030B5D0E90112114394
:10331000D0E903231A4311434269036811438269C8
:103320001143C2691143026A1143426A1143826A1E
:103330001143C26A1143026B1143426B11434FF0B8
:10334000204242F823108168082906D1016802EB67
:1033500081010B6843F040030B60416BB1F5801FA6
:1033600012D1016881B1516821F47001136843F4EE
:1033700080131360136843F480731360836B1B8A9C
:103380005B1E41EA03515160816BD1E9003443EA8D
:1033900004138C688D89240244EA054423430C8A73
:1033A00043EA04530C7D896943EA04630B430168D3
:1033B000491C42F82130816AB1F5804F07D000687E
:1033C0006FF0704102EB8000C0F8041130BDC16B9A
:1033D0000068D1E9003443EA04138C680D8A2402A2
:1033E00044EA055423430C7D896943EA046302EBF4
:1033F00080000B43C0F8043130BD2DE9F04745682B
:1034000004468EB00026284601F0BAFA00905C30DF
:10341000B0F820A0D0F80C90D0F82480C76A0068DB
:1034200000B10668684601F007FB05E079682046B0
:10343000884700283DD13F68002FF7D12068142825
:1034400044D009DCA0F10B00072839D2DFE800F0F6
:10345000BE3989B434B4110020287ED004DC17288A
:103460003ED01E282CD14BE026283CD02A2827D13C
:1034700010E02846E66801F083FA0190717A39B9C4
:10348000317A012904D130F87C1F41F48071018028
:1034900001A88FE0284601F073FA0090E16811B1AD
:1034A000C0F8841002E0D0F88400E060684601F0C3
:1034B000C3FA0EB0BDE8F087002E7DD02846B04795
:1034C0007AE02146284615F0CFFDF2E705A9284607
:1034D00000F00DFCE0680699016007994160E8E79B
:1034E000C4F80C90E5E7E0680228E2D10C95E068AA
:1034F0000D9027200A900AA9A0680FF099F9D8E743
:10350000E068012804D00021284600F031FBD0E714
:1035100040460EF016F958B140460EF013FB4046F7
:103520000DF0E0FF88B1012140460CF050FF0CE0A7
:1035300048460EF05BFB8046284601F021FA0090D9
:10354000C0F88080684601F077FA0121284600F033
:103550000FFBB8F1000FACD100E00EE00020E060FE
:10356000A7E75FEA0A7027D4E068C06820B3007A52
:1035700010B328460EF0E6FA1EE0E668E6B12946EA
:1035800070680EF03CFF20B10121284616F092FD34
:1035900012E00021284616F08DFD294630680EF015
:1035A0001DFF48B1284601F0EBF903903168C0F8DF
:1035B000801003A801F040FA214628460CF078FE5E
:1035C00000288CD020460DF00DFB72E7284601F054
:1035D000D7F90090703001F02DF96846EAE7F0B5B0
:1035E00087B0B0F908400DF10C0C0C9E8769456856
:1035F000ACE8F000448A0025CDE900150294B0F94A
:103600000C10B0F91050B0F90E40B0F90A0019448E
:1036100010442B46224600F003F807B0F0BD00002E
:103620002DE9F04F8BB09846DDE9155691468A4654
:103630008346149F1A9C02F037FB6034314845F4EE
:103640008055CDE90204CDE9007543464A4651460E
:1036500058460DF00DFA04004DD001F091F93022DA
:10366000049017990DF03EF804982822264934302A
:10367000FDF70EF8049819995C30234F8160068499
:10368000002646620661083FC6627968016004A8A8
:1036900001F0D2F905A9204600F029FB1B4841F2B0
:1036A000827103960094CDE90110BDF91E00BDF9A9
:1036B0001A10BDF91C20431ABDF918005B1C121A20
:1036C000521C0DF0D5F906467868416820468847B7
:1036D000204601F055F90490866604A801F0ACF983
:1036E00042F20400054202D120460DF01BFB2046A9
:1036F000189900F0D9FA03F07DFD0BB02046BDE823
:10370000F08F0000FB330008603B0020FD3F000805
:103710002DE9F041044694B0006800F0B7F908B113
:10372000D94D01E0D84D2C35606815281ED00CDC31
:103730000B281FD004DC00287ED005287DD12EE187
:103740000E287BD01228F9D141E1162806D017287F
:1037500008D0182808D01C28F0D109E0E86914B076
:10376000BDE8F081286AFAE7686AF8E7A86AF6E730
:103770006869F4E720680B901C200C90206801F029
:10378000FFF80390016D0BA88847064603A801F0D7
:1037900053F9022E0EDB95E807008DE80700D4E907
:1037A00004023346A16904F091FA20698719A069DF
:1037B000801B2BE0286803F050F82169E8690A189B
:1037C000521E606901F046FFA269E869111A491C9E
:1037D000606901F03FFF676920697F1C394601F08D
:1037E00065FF3946A06901F061FF686803F035F8AC
:1037F00020693946401C01F059FFA0693946401E36
:1038000001F054FF2769A069BF1C801E804628680C
:1038100003F023F842463946606901F01BFF6868EF
:1038200003F01BF860694246401C394601F012FF64
:10383000686A02280FDD02E015E1AFE000E1A86848
:1038400003F00BF861696A6A881C8B1801465B1EDD
:103850004246384627E0296AB14226DD6069022ED9
:10386000074600F1020801DB374401E007F10207D7
:10387000206901DB304401E000F1020022693B468F
:103880000A44A2F10102414602F01EF8022E02DBB8
:10389000A069821B01E0A269921EA069E9693B460A
:1038A000401A401C414602F00FF8022E02DB60690C
:1038B000064401E06669B61CE76928687F1E02F0CD
:1038C000CCFF3A463146206901F08CFF3A4631463A
:1038D000A06901F087FFE7696868BF1E02F0BDFFBD
:1038E00020693A46401C314601F07CFFA0693A4607
:1038F000401E314601F076FFE869022802DC286AA2
:10390000022823DDA86A022802DDE1690F1A01E01E
:10391000E769BF1EA86802F0A0FFE969022909DD76
:1039200020693B46421800F1020C521E31466046A7
:1039300001F0CAFF286A022808DDA269E8693B464F
:10394000101A401C921E314601F0BEFF286802F09A
:1039500084FFD4E90620216901F07CFE686802F04A
:103960007CFFA2692169E069521E491C401E01F0DA
:1039700071FEA86A022811DD2669A169E469B61CF6
:10398000271AA1F102087F1CA41EA86802F065FF97
:10399000234642463946304601F096FF72E0208ABF
:1039A00006B2ADF81460A08A01B2ADF81610208BF3
:1039B00002B2ADF81820A08B03B2ADF81A30D5E9E9
:1039C0000304CDE90004304601F008FE5AE0208AE5
:1039D000298B0844ADF81400A08AADF81600208B9E
:1039E000298B401AADF81800A08BADF81A0020689A
:1039F00000F0C6FF0390006FF0B1022002F0D4FF88
:103A0000039991F87C00C0F3C00001EB8000006CCA
:103A100002F023FF0398406B02F05AFF0398006FF7
:103A200000F0AEFF03990A90B1F95A2005A901F000
:103A300065FC0AA801F000F803A800F0FDFF21E0F2
:103A4000208AADF81400A08AADF81600208BADF8DE
:103A50001800A08BADF81A00A86802F0FEFE05A8B9
:103A600001F05EFF0EE0206800F08AFF039030F85E
:103A70005A1F41F00C01018003A800F0DDFF20680F
:103A80000EF0E6F800206AE69C3B002038B5050001
:103A90004FF000040FD002F007F9284600F070FF45
:103AA000009090F87C00000700D50124684600F0E3
:103AB000C3FF03F09FFB204638BD30B504468BB0F2
:103AC000006800F05DFF009090F87C10246A006FA1
:103AD000C1F3C00508B100F053FF0690E068029002
:103AE00020690390A088401EADF81000E089ADF871
:103AF00012002089401CADF81400608AADF8160051
:103B0000BDF80800401CADF80800BDF80A00401CD4
:103B1000ADF80A00BDF80C00401EADF80C0000988E
:103B2000406B02F0D5FE009808AA02A9B0F95A30FD
:103B3000069803F035FC009800EB8500806B05F0DB
:103B400081FE009800EB8500006C05F0B3FE08AB29
:103B500002AA04A906980CF0F9FC684600F06CFF74
:103B6000069810B106A800F067FF0BB0002030BD2A
:103B700070B50D46040009D002F096F8294620469B
:103B800016F098FABDE8704003F034BB70BD2DE923
:103B9000FC410D46804602F087F85FEA080028D015
:103BA00000F0EEFE0190C16D8C6800F007F9074649
:103BB0000198456301A800F03FFF226801214046BB
:103BC00090470646226803214046904705462268F2
:103BD0000021404690470446404600F0D8F92B4665
:103BE000324639464046009400F060F940460DF0F8
:103BF0004DFD03F0FFFABDE8FC8138B50C460546E3
:103C000002F052F855B1284600F0BAFE0090046662
:103C1000684600F011FF28460DF038FDBDE8384039
:103C200003F0E8BA2DE9FC478846814602F03CF8EB
:103C3000484600F0A5FE0190C16D8C6800F0BEF80A
:103C4000074601A800F0F8FE226801214846904787
:103C5000064622680321484690470546226800210F
:103C6000484690470446484600F08AFE01900D49B8
:103C7000C0F85080C16501A800F0DEFE484600F0A3
:103C800086F92B46324639464846009400F00EF934
:103C900048460DF0DDFF48460DF0F8FC03F0AAFAA7
:103CA000BDE8FC87903B00207CB50D4604001DD08C
:103CB00001F0FAFF204600F063FE0090006F0190D3
:103CC000684600F0B9FE294601A804F0D9FB58B1B6
:103CD000204600F055FE009001990167684600F00B
:103CE000ABFE20460DF0D2FC03F084FA7CBD2DE93A
:103CF000F34F85B000270C46B846059800F040FE0B
:103D00000090C06D0121856805982A689047824619
:103D10002A6803210598904704902A680221059893
:103D2000904703902A68002105989047064600981E
:103D30000EF002FA834600980EF005FA81460098CC
:103D400090F83210890601D5B0F9588000F036F8A5
:103D500005460098C06E10B10DF0E6F907462580C3
:103D60006780A4F804A0049AABEB020006EB0802FB
:103D7000401E2A4420813A44E280039BA9EB0302BF
:103D8000521E6281A4F80CA020827019E681401EA8
:103D90006082684600F050FEB4F90C000190B4F95E
:103DA0001000029002AA01A9059800F039F80198C4
:103DB000A0810298208207B0BDE8F08F10B50146BF
:103DC000002091F83220920607D5B1F9540000285E
:103DD00003D1486B01F0D7FE801C10BD70B58AB0CE
:103DE0000C46054600F0CCFD0990C06D866809A818
:103DF00000F022FE009534B1012C06D0022C0BD02D
:103E0000032C04D10AE0182000E01620019071680C
:103E1000684688470AB070BD1520F7E71720F5E718
:103E20002DE9FC4790468946044600F0A9FD009024
:103E3000C16D056868468E6800F0FEFD326800219D
:103E400020469047064620460DF03FF82F140446C2
:103E50002DB227E000F094FD0190B0F90010B0F908
:103E60000420B0F90230491B521BDB1BB34212D1B4
:103E700090F82800000607D5D8F8000088420ADB31
:103E8000491EC8F8001006E0D9F80000904202DC94
:103E9000521CC9F8002001A800F0CEFD20460DF00C
:103EA000C1F80446002CD5D1BDE8FC872DE9FF4FB1
:103EB00083B00E460746DDF8409000F061FD0190AA
:103EC000C16D8D68FFF77AFF044601A800F0B4FDCC
:103ED0002A6801213846904783462A6803213846DC
:103EE000904782462A680021384690470546B442EA
:103EF00007D105998B4504D106998A4501D14D45D5
:103F000042D0A41B0026B04638460CF0DEFF39E054
:103F100000F036FD0090806A010602D54FEA80501D
:103F200002E0810528D50006002825DB24B12246C1
:103F3000114638460DF08DFC009890F828000006D8
:103F40000AD50698A5EB0902A0EB0A0004FB1601AE
:103F5000761C38460DF02EFC0098008D80050BD5A0
:103F60000599A5EB0902ABEB010004FB080108F180
:103F7000010838460DF01EFC684600F05DFD38462D
:103F80000DF050F80700C3D107B0BDE8F08F70B551
:103F900086B0064600F0F4FC0590D0E91A4505A865
:103FA00000F04AFD54EA050026D069463046FFF786
:103FB0009EFEACB1BDF90620BDF9041020460DF0FF
:103FC000CCFBBDF90A00BDF90610421ABDF9080084
:103FD000BDF90410521C411A491C20460DF08DFEFB
:103FE000002D09D0BDF90600BDF90210421ABDF935
:103FF000041028460DF0B1FB06B070BD2DE9F0436A
:104000000446406885B006460DF019F8814600F078
:10401000B7FC0090D0F88080876C456E684600F051
:104020000BFD2068172859D008DC0E2837D00F2840
:104030000BD0142852D015283AD14FE01E2818D0A2
:104040001F2827D0222833D146E06FF070408742E6
:1040500004D0384605F0F6FB00F07AFE002D12D0B1
:10406000D4E902122068CDE90106CDE9031201A8C6
:1040700022E0E068002806D05FEA080006D0B045DC
:1040800004D00DF05FFD05B0BDE8F08330460DF0C3
:10409000ADFD16E0214648460CF00AF9F3E7E0686A
:1040A0004168002904DD00680928EFD00A2805D0FE
:1040B000A5B12046C4F80490A847E4E730460DF0C7
:1040C000A4FD0446484600F05BFC0090C0F8804028
:1040D000684600F0B1FCD6E7E760D4E720460CF074
:1040E00081FDD0E72DE9FC5F0E46002400270097F4
:1040F00001975A4D4FF0080AC5F800A010206860DB
:104100004FF04009C5F80890EF604FF48068C5F89B
:10411000108028460AF04EF91020FEF7BDFB00285B
:1041200032D14F4800890004286037206860C5F804
:104130000890EF60C5F8108028460AF03BF9372058
:10414000FEF7AAFB00281FD1411E05F114000160F3
:10415000C0F804A0302181600221C1600761012103
:1041600041610AF0CBF82F6033206860C5F80890F1
:10417000EF60C5F8108028460AF01CF93320FEF7DE
:104180008BFB054615B12846BDE8FC9FDFF8D490AF
:104190004FF4001B6F46DFF8CC80A9F14C0940F2C8
:1041A0002A6A0AE058460AF0C1F830B1D8F800008F
:1041B00047F82400641C022C04D2D9F8000010EA4D
:1041C0000A0FEFD008200AF0B1F820B108200AF059
:1041D00085F80420D8E702200AF0A8F820B10220D0
:1041E0000AF07CF80220CFE720200AF09FF820B1E7
:1041F00020200AF073F80620C6E74FF4007420462A
:104200000AF094F820B120460AF068F80720BBE7CE
:1042100040F2FF500AF062F800980099000601F49D
:104220007F4140EA0120009901F47F0140EA11201A
:10423000009940EA1160706001980199000601F44C
:104240007F4140EA0120019901F47F0140EA1120F9
:10425000019940EA11603060284695E7108A0120F4
:10426000D8390020802C01402DE9F0430446C56870
:1042700087B090468946002002F01DFB064625B116
:10428000287910B146F0020001E026F0020002F0A9
:1042900012FB2069012558B1D4E902128DE82600ED
:1042A000039563882288046841464846A0471EE07B
:1042B000124F134B214638681B68427CE0689847D0
:1042C00030B9E088012801D0002001E03868806B17
:1042D000A288E388A1680095CDE90410CDE90232F7
:1042E0000195638822884146484604F0AFFD07B037
:1042F0003046BDE8F04302F0DEBA0000083A002084
:10430000003A002010B5002002F090FA6FF07F40D4
:1043100002F0A3FA012002F029FB002002F034FB96
:10432000002002F041FB002002F0C5FA04480068BA
:1043300002F0CEFABDE81040002002F0E9BA000019
:10434000043A00202DE9F041002201274FF0030C30
:1043500007FA02F50B682B40AB422CD106685300DC
:104360000CFA03F4A64306600E79D0F800809E4054
:1043700046EA080606600E79012E01D0022E12D1FF
:104380008668A64386604E79D0F808809E4046EA4B
:10439000080686604668AE43466045688E7996405A
:1043A000B6B235434560C568A543C560CC799C402D
:1043B000C3681C43C460521C102AC9D3BDE8F081F5
:1043C00010B54B07DB0E9A40C90800EB8100016A6B
:1043D0000F249C40A1430162016A1143016210BD98
:1043E0000246002012690A4200D001207047002ACC
:1043F00001D0018370474183704700002DE9F04FE1
:10440000DFF828B191B04FF0FF35DBF80030B3F999
:1044100022100691DE69B3F92490F469A1898142E2
:1044200006D8E289824203D3471AD4F8008012E00A
:10443000D4E9018100296FD00A8882426CD84D8866
:10444000854269D3801A82B2486800EB8200B0F9D5
:104450000070B0F90250781C5ED0307EA17C10FB59
:1044600001FA217CCDE90801B3F92A60304605F054
:1044700033FAC0B20E90DBF8000007FB0A81A37C80
:10448000826B0127CDE90412CDE90273C069DDE931
:104490000832C17E807ECDE900014946069804F0CD
:1044A000D5FC681C18D046F0020005F015FADBF8C0
:1044B0000000A37C05FB0A81826BCDE90273CDE984
:1044C0000412C069DDE90832C17E807ECDE90001B9
:1044D0004946069804F0BAFCDBF800005D46C06966
:1044E000417E007E814214D9022E12D086F0040053
:1044F00005F0F2F92868C069027EC37E12FB0391C1
:10450000437E857E099A06984B4402FB050204F01F
:1045100057FE0E9805F0E0F9DBF80000627C418C54
:104520001144418411B0BDE8F08F0000083A00202A
:1045300004480068C069C06909B1027C0A60407C17
:1045400070470000083A0020022008807047C069C8
:1045500082898A4202D8C2898A4210D2806880B198
:1045600002888A420DD843888B420AD3406800EB08
:104570008100A0EB8200B0F90000002801DB0120DF
:1045800070470020704700002DE9F0432F4C034690
:1045900087B020681946B0F92A80C069C06900F068
:1045A00084F800284ED041680088181A01EBC00535
:1045B0004046AE7805F090F9814620686A6801238C
:1045C000816BCDE90236CDE90421C169CB7E8A7EBB
:1045D000CDE900230B7EB0F924102A78B0F922002F
:1045E00004F034FC2068C069477E067EB7421DD9BE
:1045F000C07E47434643B8F1020F17D001F02BFAB3
:10460000804601F0F1F902F028F921682A78CB6997
:10461000B1F92200DB7E12FB0302B1F92410CB19A1
:10462000314404F0CDFD404602F017F9484605F04C
:1046300053F920686A78C369B0F922109B7E12FB97
:104640000311418407B0BDE8F0830000083A002060
:1046500030B50F4C05460B4620682946C069C06935
:1046600000F023F8002811D04168008824682A1A35
:104670000120E46900EBC200085CA47E10FB04F09A
:10468000002B03D011F832106143196030BD0000D7
:10469000083A002001200880704700B5C06900F08A
:1046A00004F8002800D0012000BD06E002888A42FC
:1046B00002D842888A4202D280680028F6D1704728
:1046C00070B500240E4D16E028690E4900EBC410A9
:1046D000001D78220968FBF7DBFF2869002100EB49
:1046E000C410016000F10C018161011D0A1DC0E9C7
:1046F0000F12641C4164A8688442E5DB70BD0000B1
:10470000FC3D0020083A002070B50D490B480860B8
:10471000084603F075FE0A4C143CA068C501284603
:1047200000F0A4F82A460021206103F01BFF4FF09F
:10473000FF302060BDE8704002F0E2BD298C010826
:10474000103E0020F8B50C0005460FD001F0ACFA81
:10475000204600F017F8060010D000F011F92246AC
:1047600000902DB12946FBF70CFF04E00020F8BDB6
:10477000002103F0F7FE684600F05EF902F03AFD12
:104780003046F8BD10B5040009D001F08DFA20467E
:104790000EF03EFA044602F02DFD204610BD00202A
:1047A00010BD38B5054601F07FFA2846FFF7EAFF4D
:1047B000040009D000F0E4F82A460021009003F03C
:1047C000D1FE684600F038F902F014FD204638BDED
:1047D000024A106021F0030050607047808D012074
:1047E00010B5040016D001F05FFA0B48006B10F80A
:1047F000341059B1022909D2042101EBC4014158F6
:1048000048680EF00DF9204615F006FBBDE8104093
:1048100002F0F0BC10BD0000C48C0120002805D0BF
:10482000034A916B016001B14860906370470000DA
:10483000C48C012010B5044601F036FA2068FFF759
:10484000CFFF00202060BDE8104002F0D3BC000084
:1048500070B50D460646002405E000BF06EB840057
:10486000FFF7E8FF641CAC42F8DB70BD2DE9F041B6
:10487000044613F029FD2648E41C24F00305C16B0F
:104880002D1DA94200D90D46846B13E054F8042C69
:10489000AA420ED184B1216809B162684A60616898
:1048A00009B122680A60826BA2422ED1216881631D
:1048B0002BE02468002CE9D18046416B80680F18FA
:1048C00057F8040C3E1A306838B1002015F062FB2E
:1048D00057F8040C3E1A3068B8B97068A84214DB67
:1048E0003044441B304615F00DFBD8F80810491B26
:1048F000C8F80810D8F810102944C8F810107068CB
:104900003146401B0EF08CF820C42046BDE8F081F3
:10491000C48C012010B5002413F0D6FC0C490F20E4
:1049200001EBC002126C1AB101EBC000006C08E090
:10493000401EF5D508E04168A14200D90C468068C8
:1049400010B180680028F6D1A4F10C0010BD000061
:10495000C48C0120002138B10449042202EBC000BC
:10496000096B085841680C3908467047C48C01200F
:1049700002484169491C416170470000C48C012014
:1049800005498A69521C8A61096B01EBC0010A78EA
:10499000521C0A7000F068B8C48C01207CB5064631
:1049A0000C460846FFF7EEFE050020D0FEB130466B
:1049B000FFF7D0FFA04200DA044601F075F928465F
:1049C000FFF7DEFF00903046FFF7DAFF0146019067
:1049D00022460098FBF7D5FD684600F02DF801A8A7
:1049E00000F02AF83046FFF7FBFE02F003FC2846F1
:1049F0007CBD000010B501F057F9FFF78BFF642272
:104A00000849B0F5800F04D990FBF2F4C86944431B
:104A100003E0C9694143B1FBF2F402F0EBFB20462D
:104A200010BD0000C48C012002484169491E41614B
:104A300070470000C48C01200A4902680B6B52F8D1
:104A4000082C03EBC2021378022B03D38B690BB142
:104A50005B1E8B611178491E1170002101600846B0
:104A600070470000C48C0120002806D003490422AE
:104A700002EBC000096B085808307047C48C012055
:104A80002DE9FC414FF000060B465FEA0008344672
:104A90002BD032B111461846FFF754FE060000D164
:104AA00001244046FFF76CFF009007884568684680
:104AB000FFF7C2FFCCB9B900091D2846FFF76EFF0A
:104AC000050015D0FFF75CFF019040F8276001A8B2
:104AD000FFF7B2FF4046FFF753FF009045600188A3
:104AE000491C01806846FFF7A7FF2046BDE8FC810E
:104AF0003046FFF775FE0124F7E70820FFF751BEA7
:104B00007CB5050023D0FFF73BFF00904068C0B1A3
:104B1000FFF736FF0024019005E0019800EB8400C8
:104B2000FFF788FE641C00980088A042F5DC01A80D
:104B3000FFF782FF0098001DFFF77CFE0099002020
:104B400008806846FFF778FF2846FFF749FE7CBDDE
:104B500038B5002430B1FFF713FF00900488684691
:104B6000FFF76AFF204638BD38B50D46002448B12E
:104B7000FFF706FF2946009000F016F80446684645
:104B8000FFF75AFF204638BD38B50D46002448B11E
:104B9000FFF7F6FE2946009000F018F80446684634
:104BA000FFF74AFF204638BD38B50D46018800247E
:104BB000A94209D9406838B1FFF7E2FE009050F8E9
:104BC00025406846FFF738FF204638BD10B5002461
:104BD000FFF7EAFF10B1FFF7D3FE0446204610BDF1
:104BE00070B50C46054601F0A3F8C1B2234628462D
:104BF000BDE87040002200F001B80000F0B52D279C
:104C00001C68B0F1004F08D0002500280DDA661CA2
:104C10001E6027704042012408E0661C01251E60CA
:104C20006FF000402770491E01E00024091BC9B243
:104C30002AB3491EC9B222E00C46491EC9B29442A9
:104C400005D1124C27781C68661C1E602770104C1A
:104C500054F8216090FBF6F4E4B20A2C11D804FB5E
:104C6000160011B90DB1641CE4B20A2C02D1012462
:104C7000491CC9B21E683034771C1F60347000298B
:104C8000DAD1196800200870F0BD0000FC3900205E
:104C900064C2050870B514460D46064601F004F8D6
:104CA000204600F0E5FE0300174804EB840109D01C
:104CB00050F8210041688068711A2A1A184601F0DC
:104CC00017FE1CE000EB8104A268B24201D0012271
:104CD00000E00022E368AB4201D0012300E00023A2
:104CE0001A430CD0236943B150F821008168406811
:104CF0006A1A311A184601F01DFDC4E90265BDE8C3
:104D0000704002F077BA0000048E012010B5C2B2E4
:104D1000CBB2D21A02D5C2F1000212B293B2C0F3E2
:104D20000722C1F3072403FB03F3121B01D55242F0
:104D300012B2000C92B2A0EB114002FB023200B2A0
:104D4000002801DA404200B280B200FB002010BD12
:104D500010B50021084600F02BFF40F6FF725042CC
:104D6000BDE8104013460146AFF300802DE9FC4139
:104D70001C4615460E46074600F096FF042004F038
:104D8000ABFD80461248C068C16C006D0F440644FC
:104D90000D440444ADF80070ADF80450ADF8026065
:104DA000ADF8064068460DF0D5F907E023462A46DF
:104DB0003146384604F004FA0DF080F90028F5D1A8
:104DC000404604F089FD02F015FABDE8FC810000C0
:104DD000FC390020B0F90630B0F90420B0F9021017
:104DE000B0F90000FFF7C2BF70B586B00D460646A9
:104DF0001446114601A803F0D2FABDF806001028A7
:104E000044D00ADCA0F106000A281AD2DFE800F03C
:104E10001E202E3032343638193A15281ED008DCC0
:104E2000112831D0122833D0132813D0142808D1D8
:104E300012E0162814D0172814D0182814D064288B
:104E400002D0012006B070BD002022E0154820E00D
:104E500015481EE015481CE015481AE0154818E0F2
:104E6000154816E0154814E0154812E0154810E002
:104E700015480EE015480CE015480AE0154808E012
:104E8000154806E0154804E0154802E0154800E022
:104E9000154800902B463246214601A802F038FC06
:104EA0000020CFE74CC3050858C3050898C2050881
:104EB000A4C20508B0C20508BCC20508C8C20508DE
:104EC000D4C20508F8C2050804C30508E0C20508F5
:104ED000ECC2050828C3050834C3050840C305080B
:104EE0008CC20508DCE804088CCB05082DE9F843E2
:104EF0001C00DDE9089816460F46054602D10BF066
:104F0000BDFF044600962E6843464A462146284681
:104F1000B047060039D00BF0A6FF8146698A3046BB
:104F20000BF055FA30460CF093FF48460CF090FF1A
:104F30004FF000080CE000BFCDF8008055F81CCF02
:104F400000231A4649462846E04700B30CF080FF8C
:104F50007F1E002FF0DC1D2148460CF04EFD601C2A
:104F600012D000F0A1FE0BF0CDFF30B1FFF77CFDB9
:104F70008469B44201D02000F8D1B44202D0304656
:104F80000CF034FE02F036F93046BDE8F8833046C6
:104F90000BF060FE0020F8E72DE9F0411C461646B4
:104FA0000D460746022B02DB0020BDE8F0811C20E5
:104FB000FFF75CFC0028F8D00DB105610AE0094A52
:104FC00052F8241009B905E011460A68002AFBD1FD
:104FD0000969016184618682002101604160C0E944
:104FE0000217E2E7203A002070B51D46FFF7D4FF14
:104FF000040001D000F00EF8E068006820B9034812
:10500000006800EB85008465204670BD083A0020EA
:10501000FFF704BC70B590B38269022A30DA1C4CE9
:1050200054F8221019B944F822002FE019464B68B1
:10503000002BFBD106E0CB68C5681B682D68AB422E
:1050400003DD09680029F6D11AE0C1B1CB68C66852
:105050001B683668B3420CD1838A012B05D008E067
:105060001946DB681B68AB4203DB0B68002BF7D1EA
:1050700029B14B6833B118604A68426004E0FFE729
:10508000012070BD44F8220048600160002070BD1E
:10509000203A002010B503E00468FFF7BBFF20466C
:1050A0000028F9D110BD15F08BBC00002DE9F041AE
:1050B0000026DFF834800D4F354600BF58F82540F4
:1050C00009E0E0680068385C20B1204615F078FC03
:1050D000266026462468002CF3D16D1C022DEDDBE2
:1050E0003046BDE8F0810000203A0020D4E80408F2
:1050F000022801DB00207047054A52F8200004E036
:10510000C26812688A42F6D000680028F8D1704759
:10511000203A0020022801DB00207047054951F8A1
:10512000200004E0C16809680029F6D00068002862
:10513000F8D17047203A00202DE9F8431D46164665
:10514000884604000CD0FFF71BFC0090006807683D
:105150006846FFF771FC2B46324641462046B84769
:10516000BDE8F8832DE9F041044602F0B5F80619D0
:105170001EE000BF00F070FB052F00DD052700F0EA
:1051800093FD11480568FFF7F3FB2C0017D000BF13
:1051900002F030F8641EFBD1384602F08BF81DB1E6
:1051A00000F082FD6D1EFBD1FFF73EFC02F022F8FD
:1051B00002F092F8371A002FDCDCBDE8F0813846A7
:1051C00002F078F8F0E70000083E00202DE9FC47E7
:1051D00006005FD000F068FD00F062FC3C4C8146A8
:1051E0002068B0F9228000F0ABFC216807468A8C69
:1051F000D01B888441E000BF47F6FF71304602F0C3
:1052000077FF82460146304602F048FF2168054696
:1052100091F82C0000F00300012841D002283BD077
:1052200000204A8C101A4884ADF800006A1E104411
:10523000ADF80400888CADF80200A9F10101084422
:10524000ADF806006A465146304602F07FFA216802
:10525000BDF8020088845146304601F0A7FE06449E
:1052600030780A281ED00D281CD0BDF80000216817
:1052700028444884307818B1761C30780028BBD197
:105280002068818C39448184818D21F003018185DE
:1052900001F0B0FFBDE8FC8705EBD5704010C0E71A
:1052A0002846BEE7206890F82C1001F00301012980
:1052B0000BD0022909D0018C418431780A29D9D137
:1052C000828C02EB09018184D4E7A0F82280F4E704
:1052D000083A002070B514460D46064600F0E4FC7E
:1052E00005480068458484843046FFF76FFFBDE8B9
:1052F000704001F07FBF0000083A002047F6FF73BE
:10530000AFF300802DE9FC411F4690460D46060094
:105310004FF000041AD000F0C7FC65B128460CF02D
:105320003DFD040007D002462946684602F04DFFC5
:1053300068460CF033FD3B4642462946304602F0B3
:105340005DFA20460CF02AFD01F054FFBDE8FC8117
:105350002DE9FF4F85B090468A4607007DD000F0CA
:10536000A3FCDAF80040DAF8046021B230B2401A47
:10537000401C029000F094FB054618F00C0F1ED064
:105380003846089A029901F06FFF08F00C010429D1
:1053900004D0082902D00C2911D104E0311400FBFB
:1053A0001510401C09E02114C1EB264200FB15201A
:1053B000401C00EBD07001EB600060F31F445046CE
:1053C00001F03FFAA5F1010B04903846089A0299C2
:1053D00003F096F803904FEA244909EB0B0060F3C1
:1053E0001F46CDE900463846039902F057FE18F0F3
:1053F00003010ED001292AD002290ED1BAF90420C6
:10540000BAF90010521A101A00EBD07001EB6000CC
:1054100001E0BAF80000ADF800006A46384603998A
:1054200002F094F93846089A029903F05FF80744AD
:1054300009EB050060F31F4438780028C5D10498B3
:1054400001F0FFF909B0BDE8F04F01F0D3BEBAF8A2
:105450000410081A401CDEE7FFE709B0BDE8F08F32
:105460007CB514460D46064600F01EFC1148006847
:10547000C16C006D0D4404443188681E0844ADF8C9
:105480000400ADF800507188601E0844ADF80600B5
:10549000ADF8024068460CF05DFE06E02246294663
:1054A0003046FEF7E1FE0CF009FE0028F6D101F0CF
:1054B000A1FE7CBD083A00201CB50A46014668469C
:1054C00002F090FF00F0F0FB2548BDF800100068E6
:1054D00030F84C2F1144ADF80010BDF8021082884E
:1054E0001144ADF80210BDF8041002881144ADF863
:1054F0000410BDF8061080880844ADF80600684620
:105500000CF028FE27E000BFBDF900400BE000BF13
:10551000BDF90210204603F0C9FDBDF90610204672
:1055200003F0C4FDA41CBDF90400A042F0DABDF9EB
:1055300002400AE0BDF90000214603F0B7FDBDF9C5
:105540000400214603F0B2FDA41CBDF90600A042F0
:10555000F0DA0CF0B3FD0028D6D101F04BFE1CBDF3
:10556000083A00202DE9F04F87B09B46DDE91098FE
:1055700092460C46054600F097FB16480168C86C39
:10558000096D47190E1900EB0A0501EB0B04ADF884
:105590001070ADF81450ADF81260ADF8164004A8C4
:1055A0000CF0D8FD88B1DFF830B04FF0000ACDE93B
:1055B0000098CDE902BA2B4622463946304610F013
:1055C000BAFF0CF07BFD0028F1D101F013FE07B00B
:1055D000BDE8F08F083A0020159100082DE9F04F42
:1055E00087B09B46DDE9109892460C46054600F0D0
:1055F0005BFB16480168C86C096D47190E1900EB72
:105600000A0501EB0B04ADF81070ADF81450ADF8BD
:105610001260ADF8164004A80CF09CFD88B1DFF8CC
:1056200030B04FF0010ACDE90098CDE902BA234627
:105630002A463146384610F07EFF0CF03FFD002828
:10564000F1D101F0D7FD07B0BDE8F08F083A002096
:10565000559000082DE9FC4114460D46064600F021
:1056600023FB114F3968C86C096D054404440E448E
:10567000ADF80050ADF80440ADF80260ADF806603A
:1056800068460CF067FD08E0386822463146C06E77
:105690000368284698470CF011FD0028F4D101F06A
:1056A000A9FDBDE8FC810000083A00207CB50C464D
:1056B000064600F0F9FA0F4D2868C16C006D0E44E3
:1056C0000444ADF80460ADF80060ADF80640ADF8F4
:1056D000024068460CF03EFD07E028682146C06E97
:1056E0004268304690470CF0E9FC0028F5D101F003
:1056F00081FD7CBD083A00202DE9FC411C46164680
:105700000D46074600F0D0FA1A480168087ECA6CB8
:10571000096D401E17440D440C44391A1644ADF867
:1057200000103118ADF80410291A2044ADF8060015
:10573000ADF8021068460CF00DFD15E03246294622
:10574000384603F087FC32462146384603F082FC97
:10575000621E691C384603F0DDFC621E691C30467F
:1057600003F0D8FC0CF0AAFC0028E7D101F042FDC0
:10577000BDE8FC81083A002070B58EB015460E4693
:10578000044600F091FA214606A802F008FEBDF892
:105790001A30642B0CD1002000900AAB01AA2146DC
:1057A00006A801F0B5FF2A46314601A8FFF758FECA
:1057B00001F020FD0EB070BD70B588B015460E46E4
:1057C000044600F071FA224605A96846FFF70CFB73
:1057D00020B92A4631466846FFF742FE01F00AFD2D
:1057E00008B070BD7CB514460D46064600F05CFA64
:1057F0000F480068C16C006D0E4405440444ADF8C8
:105800000060ADF80460ADF80250ADF8064068469F
:105810000CF0A0FC06E022462946304603F07AFC54
:105820000CF04CFC0028F6D101F0E4FC7CBD00003B
:10583000083A002070B50C46054600F023F910B177
:105840000121C0E9001400F02FFA28460CF0B8FB43
:10585000BDE8704001F0CEBC10B5002400E001248A
:1058600000F004F80028FAD1204610BD064810B513
:105870000068002410B1804700B101240BF076FAD3
:1058800000B10124204610BD283A00201CB500219B
:1058900000910191694601F003F804E0FFF7DCFF95
:1058A00008B901F0B1FC00980028F7D001981CBDA0
:1058B0007CB5DDE90645CDE90045FFF717FBBDE8FE
:1058C0007C40FFF7E3BF00002DE9FC411C46154674
:1058D0000E46074600F0E8F910480068C16C006DFC
:1058E0000F4406440D440444ADF80070ADF8045074
:1058F000ADF80260ADF8064068460CF02BFC07E0FE
:1059000023462A463146384603F05AFC0CF0D6FBB3
:105910000028F5D101F06EFCBDE8FC81083A0020BA
:10592000B0F90630B0F90420B0F90210B0F9000067
:10593000FFF7CABF08B50B46002805D00092818842
:105940008268C08800F001F808BD10B50828029CE4
:1059500030D008DC04FB01F401280AD0022813D05F
:10596000042804D11CE0102828D020282CD00020A6
:1059700010BD04EBD30003F00701105CC1F1070177
:10598000C84000F0010010BD04EB93000621105C3C
:1059900001EA4301C1F10601C84000F0030010BD57
:1059A00004EB5300D907105C02D000F00F0010BDCB
:1059B000000910BD04FB0130105C10BD481004FB51
:1059C000003032F8100010BD881004FB003052F88F
:1059D000200010BD034951F82000C1688A6A0821DF
:1059E00010470000203A002010B500F05DF903F0E8
:1059F00017FC03F009FD044601F0FCFB204610BD36
:105A000010B5044600F050F9054800210068C0694F
:105A1000426820469047044601F0ECFB204610BD4A
:105A2000083A002070B50C46054600F03DF90648DE
:105A300021460068C069426828469047044601F044
:105A4000D9FB204670BD0000083A0020002801D094
:105A50000BF0E6B9704710B500F026F903F0E8FB4B
:105A600003F0D2FC044601F0C5FB204610BD000047
:105A70000021022802D2024951F82010084670473E
:105A8000D43D00201FB500210191029103912A21EC
:105A9000009169460BF0A2FF039804B010BD00000E
:105AA00010B500F001F904480068C069447E01F0B7
:105AB000A1FB204610BD0000083A002010B500F000
:105AC000F3F802F0E1FA044601F094FB204610BD21
:105AD00070B514460D46064600F0E6F82246294603
